:020000040000FA
:020000001028C6
:040002000034003492
:100020008316031361308F008312850186018701D7
:100030008316031300308500FF30860000308700F0
:100040007F308100003095000317003088000030B9
:100050008900831203138A010000861A2D28862046
:100060002908A00002308A0020080022E2000130A6
:1000700085006208870022222B08A10002308A0036
:1000800021080022E3000230850063088700222255
:100090002D08A20002308A0022080022E400043069
:1000A00085006408870022222F08A30002308A00FE
:1000B00023080022E5000830850065088700222219
:1000C0003108A40002308A0024080022E600103023
:1000D00085006608870022220430A50002308A00CD
:1000E00025080022E70020308500670887002222CB
:1000F0003308A60002308A0026081122E8004030AA
:10010000850068088700222287012C280000861EAF
:100110008728061E8928061A8B2806080F39A8008A
:10012000061E9028061A922806080F39A900061EF6
:100130009728061A992806080F39AA00061E9E2835
:10014000061AA02806080F39AB00061EA528061AB5
:10015000A72806080F39AC00061EAC28061AAE28E0
:1001600006080F39AD00061EB328061AB528060882
:100170000F39AE00061EBA28061ABC2806080F3929
:10018000AF00061EC128061AC32806080F39B000A2
:10019000061EC828061ACA2806080F39B100061E0E
:1001A000CF28061AD12806080F39B200061ED62815
:0C01B000061AD82806080F39B300080012
:1004000082073F3406345B344F3466346D347C34B9
:1004100007347F34673458344C3462346934783468
:100420000034820706345434403455346134753412
:1004300059347F3406340634063406340634063420
:1004400006340634C930B500B50B242A00009030BC
:0C045000B500B50B292A000000000800D0
:02400E00F42399
:02401000FF3F70
:00000001FF
