:020000040000FA
:020000001028C6
:040002000034003492
:1000200000008316031361308F008312850186015F
:1000300087018316031300308500FF308600FF30F0
:1000400087007F308100FF30950003170030880063
:1000500000308900831203138A011F308500A50038
:10006000000007080F397B20A1000608A30007083D
:10007000F039A400F03C031945282308013E031D74
:100080006128240E8C20A2005A2823080F390F3C27
:10009000031954282308F039F03C031D6128230874
:1000A0000F399D20A2005A280000230E0F39AE20E0
:1000B000A2005A2800002208A1071F30A11AA1009F
:1000C00063281F30A10021081F39A50203196B28DE
:1000D0001F3085006F202108A50085003028C93019
:1000E000A600A60B712800009030A600A60B76286B
:1000F00000000000080082071E341E341E341E3427
:100100001E341E341E3400341E341E341E340A3491
:100110001E3414341E341E3482070B340B340B345B
:100120000B340B340B340B3408340B340B340B34DA
:1001300009340B340A340B340B3482070B340B3480
:100140000B340B340B340B340B3404340B340B34BE
:100150000B3405340B34063407340B3482070B346C
:100160000B340B340B340B340B340B3400340B34A2
:0E0170000B340B3401340B34023403340B34E3
:02400E00F42399
:02401000FF3E71
:00000001FF
